:020000040800F2
:1000000000060020290400082B0400082B04000827
:100010002B0400082B0400082B0400082B04000804
:100020002B0400082B0400082B040008D59F0008AF
:100030002B0400082B0400082B0400082B040008E4
:100040002B0400082B0400082B0400082B040008D4
:100050002B0400082B0400082B0400082B040008C4
:100060002B0400082B0400082B040008D56E0008A0
:10007000FD6E0008296F0008556F0008816F0008A9
:10008000A96F0008D56F00082B0400082B04000896
:100090002B0400082B0400082B0400082B04000884
:1000A0002B0400082B0400082B0400082B04000874
:1000B0002B0400082B0400082B0400082B04000864
:1000C0002B0400082B0400082B0400082B04000854
:1000D0002B0400082B040008F5AE000809AF000847
:1000E0002B0400082B0400082B0400082B04000834
:1000F0002B0400082B0400082B04000801700008E2
:100100002B040008E1AE000831AF00082B04000802
:100110002B0400082B0400082B0400082B04000803
:100120002D7000085570000881700008AD7000083F
:10013000D97000082B0400082B0400082B040008C9
:100140002B0400082B0400082B0400082B040008D3
:10015000017100082D710008597100082B04000876
:100160002B0400082B0400082B0400082B040008B3
:100170002B040008C1AB00082B0400082B04000866
:100180002B0400082B0400081DAF00082B040008F6
:100190002B0400082B0400082B0400082B04000883
:1001A0002B0400082B0400082B0400082B04000873
:1001B0002B0400082B0400082B0400082B04000863
:1001C0002B0400082B0400082B0400082B04000853
:1001D0002B040008ADAB00082B0400082B0400081A
:1001E0002B0400082B0400082B0400082B04000833
:1001F0002B0400082B0400082B0400082B04000823
:100200002B0400082B0400082B0400082B04000812
:100210002B0400082B0400082B0400082B04000802
:100220002B0400082B0400082B0400082B040008F2
:100230002B0400082B0400082B0400082B040008E2
:100240002B0400082B0400082B0400082B040008D2
:100250002B0400082B0400082B0400082B040008C2
:100260002B0400082B0400082B0400082B040008B2
:100270002B0400082B0400082B0400082B040008A2
:100280002B0400082B0400082B0400082B04000892
:100290002B0400082B0400082B0400082B04000882
:1002A0002B0400082B0400082B0400082B04000872
:1002B0002B0400082B0400082B0400082B04000862
:1002C0002B0400082B0400082B0400082B04000852
:1002D0002B0400082B0400082B0400082B04000842
:1002E0004ECF4EA5A6B6F7295FC8DD56AC482149CA
:1002F00082B8C4A2F08853678D159175B481B45C3F
:10030000CF332D752821A822B27347917F7A17D059
:100310003EFC84A9A4766B7358E33E8DE330D37E14
:100320008363D3A0A8564A005896DBA5B8CECFFC6D
:100330008C0772719EFAB24D4227090759712B64DE
:10034000034AA19F695D84F2F5EC03588F0EA48ED9
:100350008117F59B7EED335594D6B64C7F9C816317
:1003600055F2F8CB55C7D36E000000000000000026
:10037000000000000000000000000000000000007D
:10038000000000000000000000000000000000006D
:10039000000000000000000000000000000000005D
:1003A000000000000000000000000000000000004D
:1003B000000000000000000000000000000000003D
:1003C000000000000000000000000000000000002D
:1003D000000000000000000000000000000000001D
:1003E000000000000000000000000000000000000D
:1003F00000000000000000000000000000000000FD
:1004000000000000000000000000000000000000EC
:1004100000000000000000000000000000000000DC
:10042000000000000000000002E000F000F8FEE71D
:1004300072B6374880F30888364880F30988364812
:100440003649086040F20000CCF200004EF63471EC
:10045000CEF200010860BFF34F8FBFF36F8F40F201
:100460000000C0F2F0004EF68851CEF200010860A4
:10047000BFF34F8FBFF36F8F4FF00000E1EE100A14
:100480004EF63C71CEF200010860062080F314881D
:10049000BFF36F8F09F000FE08F066FF4FF0553094
:1004A0001F491B4A91423CBF41F8040BFAE71D4922
:1004B000184A91423CBF41F8040BFAE71A491B4A1B
:1004C0001B4B9A423EBF51F8040B42F8040BF8E76D
:1004D00000201849184A91423CBF41F8040BFAE742
:1004E00009F018FE08F0C4FF144C154DAC4203DAB5
:1004F00054F8041B8847F9E700F0C4F9114C124D79
:10050000AC4203DA54F8041B8847F9E709F000BE4F
:1005100000060020002200200000000808ED00E096
:10052000000000200006002090C9000800220020E2
:100530007422002078220020B4660020E002000827
:10054000E0020008E0020008E00200082DE9F04F98
:100550002DED108AC1F80CD0D0F80CD0BDEC108A6B
:10056000BDE8F08F002383F311882846A0470020C0
:1005700008F0DCFCFEE708F035FC00DFFEE70000D9
:1005800053B94AB9002908BF00281CBF4FF0FF31FA
:100590004FF0FF3000F074B9ADF1080C6DE904CEF6
:1005A00000F006F8DDF804E0DDE9022304B070474E
:1005B0002DE9F047089D04468E46002B4DD18A4216
:1005C000944669D9B2FA82F252B101FA02F3C2F149
:1005D000200120FA01F10CFA02FC41EA030E9440DA
:1005E0004FEA1C48210CBEFBF8F61FFA8CF708FBFB
:1005F00016E341EA034306FB07F199420AD91CEBD3
:10060000030306F1FF3080F01F81994240F21C8104
:10061000023E63445B1AA4B2B3FBF8F008FB10334C
:1006200044EA034400FB07F7A7420AD91CEB040481
:1006300000F1FF3380F00A81A74240F20781644451
:10064000023840EA0640E41B00261DB1D4400023D6
:10065000C5E900433146BDE8F0878B4209D9002D3A
:1006600000F0EF800026C5E9000130463146BDE8C4
:10067000F087B3FA83F6002E4AD18B4202D382422E
:1006800000F2F980841A61EB030301209E46002DDD
:10069000E0D0C5E9004EDDE702B9FFDEB2FA82F232
:1006A000002A40F09280A1EB0C014FEA1C471FFA90
:1006B0008CFE0126200CB1FBF7F307FB131140EA77
:1006C00001410EFB03F0884208D91CEB010103F144
:1006D000FF3802D2884200F2CB804346091AA4B206
:1006E000B1FBF7F007FB101144EA01440EFB00FEDA
:1006F000A64508D91CEB040400F1FF3102D2A6453F
:1007000000F2BB800846A4EB0E0440EA03409CE7DD
:10071000C6F12007B34022FA07FC4CEA030C20FA8A
:1007200007F401FA06F31C43F9404FEA1C4900FAAA
:1007300006F3B1FBF9F8200C1FFA8CFE09FB181127
:1007400040EA014108FB0EF0884202FA06F20BD99A
:100750001CEB010108F1FF3A80F08880884240F2EA
:100760008580A8F102086144091AA4B2B1FBF9F02E
:1007700009FB101144EA014100FB0EFE8E4508D929
:100780001CEB010100F1FF346CD28E456AD90238AE
:10079000614440EA0840A0FB0294A1EB0E01A14293
:1007A000C846A64656D353D05DB1B3EB080261EB01
:1007B0000E0101FA07F722FA06F3F1401F43C5E9DB
:1007C000007100263146BDE8F087C2F12003D84011
:1007D0000CFA02FC21FA03F3914001434FEA1C4753
:1007E0001FFA8CFEB3FBF7F007FB10360B0C43EA45
:1007F000064300FB0EF69E4204FA02F408D91CEBF5
:10080000030300F1FF382FD29E422DD902386344F2
:100810009B1B89B2B3FBF7F607FB163341EA034192
:1008200006FB0EF38B4208D91CEB010106F1FF38E1
:1008300016D28B4214D9023E6144C91A46EA0046D8
:1008400038E72E46284605E70646E3E61846F8E66A
:100850004B45A9D2B9EB020864EB0C0E0138A3E7B3
:100860004646EAE7204694E74046D1E7D0467BE794
:10087000023B614432E7304609E76444023842E70C
:10088000704700BF38B501F01BFA01F0CBFB09F04F
:100890008FFA054609F094FB044610BB134B9D42AA
:1008A00021D001339D4241F2883504BF0124002547
:1008B00001F0CAFC20B10025032000F067F82C46A7
:1008C000002009F07FFA0CB100F076F801F04AFB45
:1008D00000F03AFD08B100F06FF8284600F026F964
:1008E000F9E70025E4E70546E2E700BF010007B0AD
:1008F00008B501F0B1F9A0F120035842584108BDF4
:1009000007B5042101900DEB010001F0C3F903B01C
:100910005DF804FB38B5302383F31188174803686A
:100920000BB108F0E7FB0023154A4FF47A71134826
:1009300008F0D6FB002383F31188124C236813B10F
:100940002368013B2360636813B16368013B636004
:100950000D4D2B7833B963687BB9022001F06CFA36
:10096000322363602B78032B07D163682BB90220F5
:1009700001F062FA4FF47A73636038BD7822002088
:10098000150900089823002090220020084B1870B9
:1009900003280CD8DFE800F008050208022001F067
:1009A00041BA022001F034BA024B00225A6070476B
:1009B0009022002098230020F8B501F045FC30B1CA
:1009C000524B03221A700022514B5A60F8BD514B12
:1009D000514A1C4619680131F8D004339342F9D1C9
:1009E00062684E4B9A42F1D94D4B9B6803F100630C
:1009F00003F500339A42E9D2002001F07BF902208E
:100A0000FFF7C4FF474B0021D3F8E820C3F8E810F4
:100A1000D3F81021C3F81011D3F81021D3F8EC202B
:100A2000C3F8EC10D3F81421C3F81411D3F814212F
:100A3000D3F8F020C3F8F010D3F81821C3F8181138
:100A4000D3F81821D3F8802042F00062C3F8802048
:100A5000D3F8802022F00062C3F88020D3F88020F1
:100A6000D3F8802042F00072C3F88020D3F88020B1
:100A700022F00072C3F88020D3F8803072B64FF0B5
:100A8000E023C3F8084DD4E90004BFF34F8FBFF350
:100A90006F8F254AC2F88410BFF34F8F536923F438
:100AA00080335361BFF34F8FD2F8803043F6E07646
:100AB000C3F3C905C3F34E335B0103EA060C2946B1
:100AC0004CEA81770139C2F87472F9D2203B13F1F4
:100AD000200FF2D1BFF34F8FBFF36F8FBFF34F8F54
:100AE000BFF36F8F536923F4003353610023C2F8BF
:100AF0005032BFF34F8FBFF36F8F302383F31188D2
:100B0000854680F30888204760E700BF90220020D8
:100B1000982300200000020820000208FFFF0108BF
:100B2000002200200044025800ED00E02DE9F04FC3
:100B300095B0DFF8D8922022FF21029004A8D9F8BE
:100B4000085001F0B9F9A84A1378A3B90121A748C0
:100B500011700360302383F3118803680BB108F030
:100B6000C9FA0023A24A4FF47A71A04808F0B8FAF3
:100B7000002383F31188029B13B19E4B029A1A60E3
:100B80009D4A1378032B03D000231370994A5360B6
:100B90004FF0000B029C5E46DA46CDF804B001200F
:100BA00001F040F924B1934B1B68002B00F0288220
:100BB000002001F051F8B0F10008F3DB012001F052
:100BC00027F9A8F121031F2BE9D801A252F823F03D
:100BD000510C00086D0C0008FB0C00089F0B00086E
:100BE0009F0B00089F0B0008850D0008770F000879
:100BF000690E0008C50E0008EB0E0008110F000872
:100C00009F0B0008230F0008470F0008BF0F0008C4
:100C1000D90C00089F0B0008071000085D0C0008A5
:100C2000D90C00089F0B0008C50E00089F0B000898
:100C30009F0B00089F0B00089F0B00089F0B0008EC
:100C40009F0B00089F0B00089F0B0008FB0C00087F
:100C50000220FFF74DFE002840F0FF81029B022199
:100C60006648BBF1000F08BF1C4640E04FF47A70A5
:100C700000F0F2FF071EF1DB0220FFF739FE00282B
:100C8000ECD0013F052F00F2EA81DFE807F003070F
:100C90000A0D10330520FFF733FE14E0D9F80000E9
:100CA000F9E7D9F80400F6E7D9F80800F3E74FF0C0
:100CB0001C08404608F1040801F01EF8FFF720FE6A
:100CC000B8F12C0FF5D10120019B4FF0000A00FA7A
:100CD00007F71F43FBB2019301F03AF92EB1019BD4
:100CE00003F00B030B2B08BF00240221444800F043
:100CF000D1FF54E7D9F80C00CDE7002EAED0019B10
:100D000003F00B030B2BA9D10220FFF7F1FD0746DF
:100D10000028A3D00120002600F0ECFF0220FFF7FE
:100D200035FE1FFA86FB584600F0F4FF044688B1F2
:100D3000A8F14002584601365142514100F0FAFFF5
:100D40000028EED1BB46044602212E483E4600F064
:100D5000A1FF24E725460120FFF718FED9F8083047
:100D6000AB4207D9284600F0C7FF013040F07A8136
:100D70000435F3E70025204BBB463E461D701D4B56
:100D80005D60A9E7002E3FF469AF019B03F00B0300
:100D90000B2B7FF463AF0220FFF7F8FD322000F049
:100DA0005BFFB0F10008FFF659AF18F003077FF4BE
:100DB00055AF08EB0503D9F8082093423FF64EAF34
:100DC000B8F5807F3FF74AAF0F4BB84503931FDD5F
:100DD0004FF47A7000F040FF0028FFF63FAF039B0E
:100DE000013703F8010BF0E794230020782200205C
:100DF00015090008982300209022002094B90008CB
:100E00008CB9000890B9000894220020002200202C
:100E1000C820FFF76DFD074600283FF41FAF1F2DC8
:100E200011D8C5F1200204AB25F003008F494245DB
:100E3000184428BF4246039201F018F8039AFF2194
:100E40008A4801F039F84FEAA803C8F387028749B6
:100E50002846039301F038F8064600283FF474AFA3
:100E6000039B05EB830537E70220FFF741FD0028D0
:100E70003FF4F4AE00F07CFF00283FF4EFAE002713
:100E8000B846D9F80830BB4218D91F2F11D8049B97
:100E900001330ED027F0030314AA134453F8403C47
:100EA0000C93404604220CA9043701F053F9804604
:100EB000E7E7384600F020FF0C90F2E74046FFF7E6
:100EC0001FFD09E7002364210CA80C9300F0D8FE55
:100ED00000287FF4C3AE0220FFF70AFD00283FF48C
:100EE000BDAE0C9800F03AFFE9E7002364210CA89E
:100EF0000C9300F0C5FE00287FF4B0AE0220FFF78F
:100F0000F7FC00283FF4AAAE0C9800F029FFD6E7C2
:100F10000220FFF7EDFC00283FF4A0AE00F038FF00
:100F2000CDE70220FFF7E4FC00283FF497AE0CA9C0
:100F3000142000F033FF0390FFF7E2FC03990CA8A4
:100F400000F0A8FEC8E60220FFF7D2FC00283FF41C
:100F500085AE474B0CAF03F1100C1868083353F8FB
:100F6000041C3A46634503C21746F6D11020FFF72A
:100F7000C7FC1021E3E7322000F06EFE071EFFF6EB
:100F80006DAEBB077FF46AAE07EB0A03D9F8082001
:100F900093423FF663AE0220FFF7AAFC00283FF41D
:100FA0005DAE27F003075744BA453FF495AE50466F
:100FB0000AF1040A00F0A0FEFFF7A2FCF4E74FF4E8
:100FC0007A70FFF795FC00283FF448AE00F0D0FEA1
:100FD000002849D0049B01330BD0082204A900202B
:100FE00000F072FF00283FD02022FF2104A800F06B
:100FF00063FF2048022100F04DFE1F4807F09CFFD0
:1010000015B0BDE8F08F002E3FF428AE019B03F031
:101010000B030B2B7FF422AE002364210CA80C934E
:1010200000F02EFE074600287FF418AE0220FFF7DE
:101030005FFC804600283FF411AE02210D4800F00D
:1010400029FE41F2883007F077FF0C9800F0C8FFC6
:1010500046463C4600F07CFFA1E506463CE64FF0E4
:10106000000AFBE5BB466FE637466DE6942200209A
:1010700078B900088CB90008A0860100704700000C
:1010800070470000704700002DE9F04100F58037FF
:10109000044616463B7C5BB9C0681030204400F023
:1010A000E5FEE5683544B5F5004FE56002D816B1B8
:1010B000BDE8F081DEB905F07F0605F110000021E2
:1010C000C6F180062044F6B232462E4400F0F4FE0B
:1010D000A06804F11008324600F10060414600F5B6
:1010E000003008F005FC30B901233B74E0E74FF411
:1010F00000463546ECE7A26805F11001404632444F
:101100002144A260E268521BE26000F0AFFE0220C0
:10111000BDE8F04100F090BE183000F0E9BC0000DE
:1011200010B5044603F0A0FB204610BD10B50446E0
:1011300003F09AFB204610BDC0B2A0F14103052B7D
:1011400002D83738C0B27047A0F16103052B94BFB5
:1011500057383038F6E7000070B5044615460846A3
:1011600003220C4900F08CFE014688B908346E1C3D
:1011700015F91100FFF7E0FF024616F911000131E1
:10118000FFF7DAFF102940EA021004F8010BEFD153
:1011900070BD00BF98B900082DE9F04FADF53F7D57
:1011A0000746416801222AA805F040FA002840F0CD
:1011B00087800646824681461125DFF80C81DFF8DC
:1011C0000CB101AB4FF4805241462AA805F08EFBCA
:1011D000002875D1019AB2F5805F71D8002A65D0D8
:1011E0000446019A9442ECD2282D0FD008DC132D2E
:1011F0002DD01E2D39D0112D13D00134A4B2F0E71B
:10120000322D2DD0372D2FD02D2DF6D13B68121B2E
:1012100008EB040138461B692D259847BDF80440AA
:10122000EBE7121B022A09D9594608EB040000F02B
:1012300027FE18B902342825A4B2DEE718F80430D6
:101240003A2B3DD00A2B1CBFA1461325D5E718F831
:1012500004300A2B34D03A2B04BFA2463225CCE707
:1012600018F80430202BC8D0264618F804300A2B72
:101270001AD1AAEB090208EB090102A811254F2A8D
:1012800028BF4F220AF064FBA21B08EB060116A838
:101290004F2A28BF4F220AF05BFB3B6816AA02A91F
:1012A000DB6838469847A8E71E25A6E73B6838461E
:1012B00004491B69984701200DF53F7DBDE8F08F7B
:1012C0000020F9E77DBA0008A02300209CB900089F
:1012D00000F1180110B5044686B00846019100F0EF
:1012E000F1FB2046FFF758FF60B1019902A800F01A
:1012F00049FC102204F1080102A80AF0C7FAB0FA6A
:1013000080F0400906B010BD70B504460025EEB26D
:10131000304600F0FFFC58B100213046013500F0A6
:1013200009FD08B9002070BD022000F085FDEEE740
:101330002046FFF731FF0028F4D004F58034207CEC
:1013400080F00100EFE70000F0B5C9B008F048FDFB
:1013500003F0A6FA18B90025284649B0F0BD694641
:101360002A4805F085FB00284BD1294C204605F082
:10137000AFFB284805F0ACFB274805F0A9FB214648
:10138000224805F021FC0028E5D1702003F066FA20
:10139000064610B1214B44600360336830469B68B9
:1013A0009847054600282ED01A4F1948394605F0AF
:1013B0000BFC05460028CED1194803F04FFA04462D
:1013C00038B1184B4760036000F58033C0E902551F
:1013D0001D74236820469B689847054628B10E492E
:1013E0000C4805F0F1FB0028B5D1336830465B6846
:1013F00098471CB1236820465B68984703F038FA89
:10140000AAE70025FAE70446EFE700BFA0B9000805
:10141000B0B90008C7B90008DDB9000800BA000873
:10142000140001001CBA00082DE9F04FD44A8DB019
:101430000B68D0F804A001931A440368D14E1A44F3
:10144000D1F81C90DFF8B4C3DFF8B4B3D0E90234AC
:10145000634003EA0A03634013444A6802920AEBBA
:101460007363029CC84A2244C468224484688AEA9E
:1014700004051D40654015448A68039203EB355509
:10148000039CC24A2244846822448AEA03042C4012
:1014900084EA0A041444CA6805EBF434049216443E
:1014A00083EA0502224056445A4032440E690596AA
:1014B00004EBB222059FB64E3E441E4485EA040367
:1014C00013406B4033444E69069602EB7363069FEC
:1014D000B04E3E442E4484EA02051D40654035442A
:1014E0008E69079603EB3555079FAB4E3E44264465
:1014F00082EA03042C4054403444A84E4E4405EB89
:10150000F434164483EA050222405A4032440E6AFB
:10151000089604EBB222089FA14E3E441E4485EA81
:10152000040313406B4033444E6A099602EB736325
:10153000099F9C4ED1F830E03E44D1F83880F34406
:101540002E4484EA02051D40654035448E6AA6F5A6
:10155000244703EB35550A964F3F274482EA03049C
:101560002C4054403C44CF6A0B9705EBF4340B9E5F
:101570008D4F3744029E174483EA050222405A40A9
:101580003A448A4F774404EBB2221F4485EA0403AD
:1015900013406B403B444F6BBC4402EB73636544A8
:1015A00084EA020C0CEA030C8CEA040C6544DFF8B4
:1015B00054C2C44403EB3555A44482EA03042C40CE
:1015C00054406444D1F83CC0794905EBF43461449B
:1015D000114483EA050222405A400A44754904EB4B
:1015E000B2223144079E194484EA02032B4063402F
:1015F0000B44714902EBF36331440B9E0D4482EAC4
:1016000003012140514029446C4D03EBF151354415
:10161000019E254483EA010414405C402C44684D3B
:1016200001EBB4443544069E154481EA04021A4095
:101630004A402A44634D04EB323235440A9E1D442D
:1016400084EA02030B4063402B445F4D02EBF363DB
:101650003544059E0D4482EA03012140514029444E
:101660005A4D03EBF1516544254483EA01041440CB
:101670005C402C44564D01EBB4443544099E15445E
:1016800081EA04021A404A402A44524D04EB3232A5
:101690003544049E1D4484EA02030B4063402B44FE
:1016A0004D4D02EBF36345440D4482EA03012140B2
:1016B00051402944494D03EBF1513544089E2C44D7
:1016C00083EA010515405D402C44454D01EBB444CF
:1016D0003544039E2A4481EA04051D404D402A44B6
:1016E000404D04EB32323D442B4484EA02059344DE
:1016F0000D4065402B443C4D02EBF3633544069EA0
:10170000294482EA0305254055402944374D03EB1F
:10171000F1514D442C4483EA010515405D402544B8
:1017200001EBB54581EA050404EA03024A405A4444
:10173000A6F5B82B089E05EB3232ABF2BE6B5440D7
:101740005B4423442A4C344402EB33730B9E0C4419
:1017500085EA020159402144264C344403EB71517F
:10176000029E254482EA03044C402544224C444412
:1017700001EB3545144483EA01026A40224443E008
:1017800078A46AD7EECEBDC156B7C7E8DB70202477
:10179000AF0F7CF52AC68747134630A8019546FD52
:1017A000D8988069AFF7448BBED75C892211906BC3
:1017B0002108B44962251EF640B340C0515A5E2646
:1017C000AAC7B6E95D102FD65314440281E6A1D80A
:1017D000C8FBD3E7E6CDE121D60737C3870DD5F4A3
:1017E000ED145A4505E9E3A9F8A3EFFCD9026F67A8
:1017F00081F6718722619D6D0C38E5FD937198FD2E
:101800008A4C2A8D8E4379A6934C344405EB722280
:10181000059E1C4481EA0503534023448F4C344405
:1018200002EB33730A9E0C4485EA020159402144BD
:101830008B4C4C4403EB7151254482EA03044C4029
:101840002C44884D354401EB3444019E154483EA11
:10185000010262402A44844D3D4404EB72221D443F
:1018600081EA040353402B44804D354402EB33732B
:10187000049E294484EA02055D4029447C4D354498
:1018800003EB7151079E254482EA03044C402C442B
:10189000784D354401EB3444099E2A4483EA01051E
:1018A00065401544744A324404EB7525039E134485
:1018B00081EA04026A401A44704B734405EB3272A9
:1018C0000B4484EA0501514019446D4B634402EB1B
:1018D00071511C4485EA02034B401C44694B33445C
:1018E00001EB3444019E1D4482EA010363402B4412
:1018F000654D04EB73233544069E154463EA0102EB
:1019000062402A44614D03EBB2624D4462EA04092D
:1019100029445F4D89EA0309454449442C445D4DFF
:1019200002EBB1513544049E61EA03081D4488EA84
:101930000208444401EB744464EA02034B402B4424
:10194000554D04EBF323754463EA010E15448EEA0A
:10195000040E0EEB0502514D03EBB262354462EA10
:10196000040E29440A9D8EEA030EA5F580164C4DFF
:101970007144A6F6833602EBB151264461EA0304B2
:1019800054403444029E01EB7444354464EA020638
:101990001D444E407319089E424D04EBF323354419
:1019A00063EA01061544664072193F4D03EBB262CB
:1019B000654462EA040629443C4D5E403144079E7A
:1019C00002EBB151354461EA03062C44384D5640D0
:1019D0003D443444059E1D4401EB744464EA020313
:1019E0004B402B44334D04EBF32335440B9E1544FD
:1019F00063EA010262402A442F4D03EBB262354490
:101A0000039E0D4462EA0401594029442B4D02EB28
:101A1000B15135442A4E254461EA030454402C4414
:101A2000099D01EB74442E4464EA02051E4485EAD4
:101A300001039D1903681A440AEB040303EBF52321
:101A40000260436083681C44C36819448460C160B9
:101A50000DB0BDE8F08F00BF44EABEA4A9CFDE4BB5
:101A6000604BBBF670BCBFBEC67E9B28FA27A1EABE
:101A70008530EFD4051D880439D0D4D9E599DBE64B
:101A8000F87CA21F6556ACC4442229F497FF2A4370
:101A9000A72394AB39A093FCC3595B6592CC0C8F00
:101AA000D15D84854F7EA86FE0E62CFE144301A330
:101AB000A111084E827E53F735F23ABDBBD2D72A28
:101AC00091D386EB094B036003F18833436003F144
:101AD0002943A3F59613A3F68B638360A3F18833A0
:101AE000C3600023C0E90433704700BF012345678A
:101AF0002DE9F8431446026905460E46E300C2F399
:101B0000C50800F118079B18036122BF4369013320
:101B1000436112F4FC7F436903EB5473436114D0B7
:101B2000C8F1400907EB08004C4504D22246BDE845
:101B3000F84309F0DDBE403C4A464E4409F0D8FE69
:101B4000444439462846FFF76FFCA04606EB0409DB
:101B5000B8F13F0FA9EB08010AD94022384609F035
:101B6000C7FE39462846A8F14008FFF75DFCEFE7BD
:101B7000A1096FF03F02384602FB014206EB8111DA
:101B8000D5E7000070B50B6901F1180506460C4653
:101B9000C3F3C503EA18501C8022EA54C3F13F0284
:101BA000072A1FD8002100F087F929462046FFF7B1
:101BB0003BFC38220021284600F07EF923692946A3
:101BC0002046236563696365FFF72EFC21461022DA
:101BD000304609F08DFE204658220021BDE87040B5
:101BE00000F06AB9C3F137020021E5E72DE9F84FAB
:101BF0004FF47A7306460D46002402FB03F7DFF824
:101C00005080DFF8509098F900305FFA84FA5A1C3F
:101C100001D0A34210D159F824002A463146036866
:101C2000D3F820B03B46D847854205D1074B012069
:101C300083F800A0BDE8F88F0134042CE3D14FF401
:101C4000FA7007F079F90020F4E700BFE4330020D0
:101C50001022002014220020002307B50246012193
:101C60000DF107008DF80730FFF7C0FF20B19DF898
:101C7000070003B05DF804FB4FF0FF30F9E7000008
:101C80000A46042108B5FFF7B1FF80F00100C0B299
:101C9000404208BD074B0A4630B41978064B53F84A
:101CA0002140014623682046DD69044BAC4630BC28
:101CB000604700BFE433002014220020A08601000A
:101CC00070B50A4E00240A4D07F0B6FD3080286832
:101CD0003388834208D907F0ABFD2B6804440133F5
:101CE000B4F5003F2B60F2D370BD00BFE633002097
:101CF000A033002007F07ABE00F1006000F500304C
:101D00000068704700F10060920000F5003007F0B5
:101D1000EFBD0000054B1A68054B1B889B1A8342D8
:101D200002D9104407F084BD00207047A033002082
:101D3000E633002038B50446074D29B12868204411
:101D4000BDE8384007F08CBD2868204407F076FDD8
:101D50000028F3D038BD00BFA0330020002070471A
:101D600000F1FF5000F58F10D0F800087047000018
:101D7000064991F8243033B100230822086A81F81B
:101D80002430FFF7BFBF0120704700BFA4330020FD
:101D9000014B1868704700BF0010005C194B0138F8
:101DA0000322084470B51D68174BC5F30B042D0CB6
:101DB0001E88A6420BD15C680A46013C824213464B
:101DC0000FD214F9016F4EB102F8016BF6E7013A38
:101DD00003F10803ECD181420B4602D22C2203F816
:101DE000012B0424094A1688AE4204D1984284BFCC
:101DF000967803F8016B013C02F10402F3D1581A02
:101E000070BD00BF0010005C242200205CBA0008F6
:101E1000022803D1024B4FF080529A61704700BFF5
:101E200000100258022803D1024B4FF480529A61ED
:101E3000704700BF00100258022804D1024A5369BB
:101E400083F48053536170470010025870B5044604
:101E50004FF47A764CB1412C254628BF412506FB2C
:101E600005F0641B07F068F8F4E770BD002310B5B7
:101E7000934203D0CC5CC4540133F9E710BD000099
:101E8000013810B510F9013F3BB191F900409C4277
:101E900003D11AB10131013AF4E71AB191F90020E6
:101EA000981A10BD1046FCE703460246D01A12F9F4
:101EB000011B0029FAD1704702440346934202D025
:101EC00003F8011BFAE770472DE9F8431F4D14464C
:101ED0000746884695F8242052BBDFF870909CB3E3
:101EE00095F824302BB92022FF2148462F62FFF7B6
:101EF000E3FF95F824004146C0F1080205EB80009D
:101F0000A24228BF2246D6B29200FFF7AFFF95F853
:101F10002430A41B17441E449044E4B2F6B2082EA9
:101F200085F82460DBD1FFF723FF0028D7D108E034
:101F30002B6A03EB82038342CFD0FFF719FF0028FF
:101F4000CBD10020BDE8F8830120FBE7A4330020BB
:101F5000024B1A78024B1A70704700BFE43300201E
:101F600010220020F8B5194C194806F0EDFA214668
:101F7000174806F015FB24684FF47A70154ED4F814
:101F80009020154DD2F80438114F43F00203C2F8E7
:101F90000438FFF75BFF2046104906F00FFCD4F829
:101FA00090200424D2F8043823F00203C2F8043845
:101FB0004FF4E133336055F8040BB84202D0314698
:101FC00006F020FA013CF6D1F8BD00BF10C80008A9
:101FD00018490020CC3300201422002018C8000823
:101FE0000C4B70B50C4D04461E780C4B55F8262052
:101FF0009A420DD00A4B002118221846FFF75CFFC9
:102000000460014655F82600BDE8704006F0FAB9B4
:1020100070BD00BFE43300201422002018490020C6
:10202000CC3300202DE9F04771B6464B01201D68E6
:10203000454BB3F8008000231A46194605F034F9E1
:102040000446802007F072FD0746002862D0002C6D
:1020500060D03E4EADB24FF0800A7369284643F01F
:10206000C0637361D6F8143143F0C063C6F814310D
:1020700007F0DEFB05EB080200FB05F34FF4D06C24
:1020800050434FF03D0E984233D93269520144D447
:10209000D6F81021510140D4216803F100628A6012
:1020A0002268D7602268C2F804A02268C2F800C083
:1020B000D4F80090D9F8002042F00102C9F80020BD
:1020C000D4F80090D9F8002022F01E02C9F80020B0
:1020D000D4F80090D9F80020D207FBD494F80C90E3
:1020E000803361680EFA09F20A60CCE7002007F03D
:1020F0007DFC204605F018F9384607F053FD134BD8
:102100005A6942F0C0625A61D3F8142142F0C062A9
:10211000C3F8142161B6BDE8F0870D4B9A6A42F40A
:1021200000729A629A6A42F400429A6261B600268C
:10213000012007F05BFCB045D8D9A819013607F09B
:102140008FFBF8E7A0330020E63300200020005288
:1021500000ED00E030B50A44084D91420DD011F871
:10216000013B5840082340F30004013B2C4013F08E
:10217000FF0384EA5000F6D1EFE730BD2083B8EDCD
:1021800030B5002489B00B4D1C22214601A80094D3
:10219000FFF792FE20226946281909F077FB30B933
:1021A0002034B4F5A07FF5D1012009B030BD002066
:1021B000FBE700BFE80200082DE9F047D8B004466D
:1021C0000D4616461F46FFF7DBFF90BBA369482B61
:1021D00031D1082204F11C01184809F057FB50BB0B
:1021E0008246DFF85C80DFF85C904FF4B07200212B
:1021F0006846FFF761FE08EB0A0204F12401684615
:1022000002F0F0F92A464946684602F0F1F96846BC
:102210003A46314602F0ECF9684602F0EBF928B193
:102220000AF1200ABAF5A07FDFD1122058B0BDE82C
:10223000F0870020FAE71120F8E700BF80BA000815
:10224000E8020008000002083E4A2DE9F341106848
:102250006B4651686A4603C308233B493B4809F073
:1022600025FB0446002834D10A24FFF789FF002803
:1022700063D0374A6B46106851686A4603C3082327
:102280003449324809F012FB0546002855D003694D
:10229000B3F5F01F51D8428B8C2A4ED12E4A0244FE
:1022A00002F110018B4248D3103B284900209E1AAE
:1022B000FFF750FF05F11801074632460020FFF7EF
:1022C00049FFAB689F4238D1EB68984208BF0024B1
:1022D00033E00369B3F5F01F01D90B24C5E7B0F86B
:1022E00066208C2A01D00C24BFE71B4E064406F161
:1022F0005C02934201D21024B7E75C3B00F1640713
:10230000324612499D1B0020FFF724FF39468046C4
:102310002A460020FFF71EFFA368984501D00D2430
:10232000A3E7E3689842FAD120462B463A46314665
:10233000FFF742FF0446002897D1204602B0BDE8CF
:10234000F08100BF6CBA000890FF1D000000020879
:1023500075BA0008DCFF1D000800FEF7837842789C
:102360001B04007843EA0223184370470068704753
:1023700008B50246FFF7FAFF0346101DFFF7F6FF08
:102380000146184608BD00000B0A017043700B0C93
:10239000090E8370C170704708B501EB8202031FFC
:1023A00008460431FFF7E2FF43F8040F9142F7D1EA
:1023B00008BD000010B500EB82020C1F54F8041F8A
:1023C000FFF7E2FF04309042F8D110BD2DE9F04153
:1023D00088460546FFF7CCFF06460C464046FFF709
:1023E000C7FF464005F108004C40FFF7C1FF074614
:1023F0000D4608F10800FFF7BBFF78406940304305
:102400002143BDE8F0810000F8B506460F46FFF70E
:10241000DDFF05460C4606F1100007F11001FFF73D
:10242000D5FF28432143F8BD2DE9F04F0368B7B02D
:10243000384CC1F1000A1A93436837491B938368EB
:10244000364D1C93C368364F1D930369DFF8F8B00F
:102450001E9343698AEA0B0B324E1F938369DFF8A0
:10246000ECE02093C369DFF8E8C02193036A22936C
:10247000436A2393D0E9102362402B4C05922B4AE8
:1024800053400693836A2493C36A2593D0E91223A9
:1024900062400D92264A5340264A0E93036B0092E7
:1024A0002693436B279381EAEA7320991793836BF2
:1024B00018912893C36B289A299300F15003119225
:1024C000299A21991292269A19910792279A1E9970
:1024D0000892249A159103921F99259A16910492B5
:1024E000DDE922421C990F911D9910911A990991C9
:1024F0001B990A911049CDE9015101F14F7101F584
:10250000D341583113910D4914910D49CDE90B7107
:102510000C4F1FE0D182E6ADABD9831F79217E132A
:102520002BF894FE85AE67BB1F6C3E2B7F520E517D
:102530008C68059B20BF000819CDE05B3AF54FA5DC
:1025400072F36E3C3BA7CA846BBD41FB08C9BCF368
:1025500067E6096A0099097803EBC10553F8311061
:102560006D68611842EB0508099D49190A9D45EB04
:102570000808059D81EA0509069D88EA050A1AEB07
:102580000E0E4CEB090C8EEA04048CEA0202250EB6
:1025900045EA0225120E42EA0422009C6478099260
:1025A00003EBC40253F834405268091948EB02089F
:1025B0004A190592099A48EB02020692059A82EAA4
:1025C0000A0A069A4FEA1A4182EA090941EA0942CF
:1025D00009994FEA1949349249EA0A423592349AE4
:1025E0001EEB02022A92359A4CEB02022B922A9A97
:1025F00055402B9A51400A46490041EAD5716D0079
:10260000339145EAD2723292009A927803EBC2017A
:1026100053F832204968039C0D9DA218049C44EB9A
:10262000010E0F9912EB010A1099009A41EB0E0E60
:102630000E9985EA0A058EEA0108039918EB070747
:1026400046EB050687EA010C74404FEA1C6141EA3B
:102650000421240E44EA0C2492F803C003EBCC09B5
:1026600053F83CC0D9F804901AEB0C024EEB090E5B
:1026700052180D924EEB04020E920D9A82EA08084F
:102680000E9A55404FEA184242EA05422D0C30920C
:1026900045EA08423192309ABA182C92319A46EBA8
:1026A00002022D922C9A51402D9A5440620042EA27
:1026B000D1724900099241EAD4720492009A1279C7
:1026C00003EBC20153F832204D6807998A18089924
:1026D00041EB050515995218169941EB0505179917
:1026E00082EA0B04039285EA010A0B99009A1AEB1D
:1026F00001060C9992F805E041EB040B079953F899
:102700003E8086EA010C0899039A8BEA01074FEA9A
:102710001C6112EB080241EA07214FEA176747EAFA
:102720000C2703EBCE0CDCF8049045EB090552189E
:10273000159245EB07021692159A82EA0A0A169A32
:102740004FEA1A49544049EA0442240C2E9244EAC2
:102750000A42119C2F922E9AB6182F9A4BEB020B1D
:1027600071408BEA07077A0042EAD1724900089269
:1027700041EAD7720792009A917903EBC10253F8AC
:10278000311052686118129C44EB0208189A89189B
:10279000199A42EB0808019A029C4A40129F88EA63
:1027A000040E139C1EEB0405149C44EB0209119CBF
:1027B0006C4089EA070C270E47EA0C274FEA1C6C8D
:1027C0004CEA042C009CE47903EBC40A53F834402F
:1027D000DAF804A00919059C48EB0A08C9191791F1
:1027E00048EB0C011891179981EA0E0E18994FEADF
:1027F0001E4A4A404AEA024A120C15EB0A0542EA0E
:102800000E4E87EA050749EB0E0989EA0C0C4FEAE0
:102810004C0848EAD7727F00129247EADC721192A4
:10282000009A117A03EBC10253F831105268611813
:10283000069C44EB0208049A8918099A48EB02089E
:1028400081EA0A0A049A88EA0E0E1EEB06064BEB92
:102850000A0B86EA0204099A270E8BEA020247EA6B
:1028600002274FEA126C009A527A4CEA042C03EBCE
:10287000C20453F832206468891848EB0408CA1966
:10288000099248EB0C020A92099A8EEA020E0A9A01
:102890008AEA020A4FEA1E4242EA0A424FEA1A4A0A
:1028A00001924AEA0E420292019A92190B92029AFE
:1028B00042EB0B020C920B9A57400C9A8CEA020CDA
:1028C0004FEA4C0444EAD772359C7F00049247EAF1
:1028D000DC720392009A927A03EBC20153F8322021
:1028E0004E680D998A180E9941EB0606079912EB6E
:1028F00001080899009A46EB0106349986EA040A11
:1029000088EA0101079C1AEB050549EB010985EAF4
:10291000040C089C89EA04074FEA1C6444EA072473
:102920003F0E47EA0C2792F80BC003EBCC0E53F88E
:102930003CC0DEF804E018EB0C0246EB0E06121960
:102940000F9246EB070210920F9A8AEA020A109A37
:1029500051404FEA1A4242EA0142090C059241EA0B
:102960000A420692059A52191392069A42EB0902FC
:102970001492139A5440149A57407A0042EAD4723F
:102980006400089244EAD7720792009A127B03EB24
:10299000C20153F832204D6815998A18169941EBF7
:1029A0000505119912EB010A1299009A45EB0105F0
:1029B00030998AEA0106319985EA01072A9911EBD3
:1029C000070E2B9941EB060C11998EEA010412991E
:1029D0008CEA0108210E41EA08214FEA186848EA0A
:1029E000042492F80D8003EBC80953F83880D9F815
:1029F00004901AEB080245EB09055218159245EBB5
:102A000004021692159A5740169A56403A0C42EA1A
:102A10000642360C0D9246EA07420E920D9A12EBD0
:102A20000E0E0E9A42EB0C0C81EA0E0184EA0C04A5
:102A30004FEA440A4AEAD1724900129241EAD4723A
:102A4000179C1192009A917B03EBC10253F831104D
:102A500052686118189C44EB0208329A009C89184D
:102A6000339AE47B48EB02082E9A81EA02092F9AF6
:102A700088EA020A2C9A12EB0A072D9A42EB090601
:102A8000329A87EA020B339A4FEA1B65724045EA95
:102A90000225120E42EA0B2203EBC40B53F834401A
:102AA000DBF804B0091948EB0B084919189148EBF9
:102AB0000201199118998AEA010A199989EA01090A
:102AC0004FEA1A4141EA094B4FEA19491BEB070744
:102AD00049EA0A4185EA070541EB0606179182EAB1
:102AE00006014A0042EAD5726D0045EAD1740099A8
:102AF00010310091009D3949A9427FF42BAD099B0B
:102B00000C9D83EA0E010A9B83EA0C081A9B59402C
:102B10001B9B88EA0303C0E900130F9B13997B40BA
:102B20001F46109B73401E461C9B5F401D9B5E40D2
:102B3000159BC0E902760B9E5E40169B5D401E9B76
:102B40005E401F9B5D40189BC0E904655940199D7C
:102B5000149B83EA0508209B5940219B88EA0303C4
:102B6000C0E90613059B83EA0409069B83EA020A6F
:102B7000229B89EA0304239B8AEA0302C0E90842F4
:102B8000039B0D9A049C83EA020C0E9B259A5C40E1
:102B9000249B12998CEA03035440179AC0E90A3423
:102BA000079B83EA0B04089B83EA020A269B5C408E
:102BB000279B8AEA0302119BC0E90C42019A5A4002
:102BC000029B83EA010A289B5A40299B8AEA030355
:102BD000C0E90E2337B0BDE8F08F00BFE0BF0008AA
:102BE00070B505460E46144622B980222146503063
:102BF000FFF762F924F00700E40004F038042844E9
:102C0000A4F12003C4F1200206FA04F406FA03F347
:102C100026FA02F21343D0E9146234431343C0E9A5
:102C2000144370BD28220021FFF746B90123242256
:102C3000002140F8043BFFF73FB90000002351F8A2
:102C4000232040F8232001330A2BF8D170470000DD
:102C5000002351F82320524240F8232001330A2B4D
:102C6000F7D17047002330B551F8234052F8235074
:102C70002C4440F8234001330A2BF5D130BD00002D
:102C8000002330B551F8234052F82350641B40F81C
:102C9000234001330A2BF5D130BD000030B552423C
:102CA000041F0439243054F8045F51F8043F84426F
:102CB00083EA050303EA020383EA05032360F2D1F2
:102CC00030BD00002DE9F04F8BB0044608460025CA
:102CD000FFF74CFB0190081DFFF740FB8301C81D67
:102CE0000093FFF73BFB4FEA401A01F10A00FFF7A0
:102CF00035FB4FEAC00B01F10D00FFF72FFB8600FB
:102D000001F11000FFF732FB814601F11400FFF7DB
:102D100025FB4FEAC01801F11700FFF71FFB470121
:102D200001F11A00FFF71AFB030101F11D000493E2
:102D3000FFF714FB019A6C4B03EA800312F1007059
:102D400005934FEA906045F1000340EA83109B161B
:102D500081064FEA901C521A06926CEB4C020792C5
:102D6000009A101843F1000216F1007C45F10001B1
:102D70004FEA9C6C4CEA811C89164FEA8C634FEA3F
:102D80009C15F31A65EB450619EB0C0941F100019E
:102D900010F1807C42F100054FEA5C6C4CEAC51CE6
:102DA0006D161AEB0C0AA0EB4C6245F1000519F107
:102DB000807008924FEA506041F1000240EAC21070
:102DC0005216A9EB4061099118EB0001009142F104
:102DD00000021AF1007145F10005890E41EA8511E2
:102DE000AD161BEB01004FF0130B019045F10005F0
:102DF000009810F1007042F10002800E40EA82104B
:102E000092163F18029742F10002019F17F1807E4F
:102E100045F100054FEA5E6E4EEAC51E029D13EBBA
:102E20000E0346F1000615F18077049D42F1000281
:102E30007F0E039347EAC2175216ED1942F10002C2
:102E400013F1007C049546F100064FEA9C6C069B4A
:102E50004CEA861C15F10076059D42F10002B60E83
:102E600046EA8216921615EB060942F1000219F1A4
:102E7000807542F100026D0E45EAC215A5FB0B2BD1
:102E8000A9EB4565D218079B4BEB030B12F10078B9
:102E9000089B4BF1000B4FEA986848EA8B18A2EBAD
:102EA0008862226013EB08026260AAEB8162A26072
:102EB000019B6562A3EB4E61039BA3EB8C63E16016
:102EC0002361099B13EB0C036361009BA3EB8063FD
:102ED000A361029BA3EB4760049BA3EB8666E061C2
:102EE00026620BB0BDE8F08FFCFFFF012DE9F04F2B
:102EF0000D688BB00C694FF0130B82FB055C82FBF5
:102F0000044615F100774CF1000ABF0E47EA8A1714
:102F10004FEAAA680AF07C4ABB064AEA971AEB1AFB
:102F20004D6806936CEB0A0314F1007CC2FB057834
:102F3000079346F1000E4FEA9C6C4D694CEA8E1CDB
:102F40004FEAAE6A0EF07C4E4FEA8C634EEA9C1E4E
:102F5000C2FB05CAE41A66EB0E0E17F1807548F144
:102F600000086D0E45EAC8154FEA6863A7EB456691
:102F70008F6808961CF18076C2FB07534AF1000A5D
:102F8000760E15F1007946EACA1643F100034FEABE
:102F90009969ACEB466749EA831909974FEA6A6A6F
:102FA0008F699B16A5EB8965C2FB076ACF680196FE
:102FB0004E46C2FB07630296019ECF6916F1007C64
:102FC0004AF1000A4FEA9C6C4CEA8A1C4FEAAA6A52
:102FD0006646C2FB076A0396029E16F1807843F1AB
:102FE00000034FEA586848EAC31814EB08044EEB94
:102FF0006366039B13F180770B6A496A4AF1000A02
:103000007F0E856047EACA174FEA6A6ABE46C2FB6E
:1030100003EACDF810E014F1007E46F100034FEA18
:103020009E6E4EEA831E049B13F10076A4EB8E6421
:103030004AF10003B60E46EA83169B16B246C2FB5F
:1030400001A31AF18071CDF814A043F10003490ED9
:1030500041EAC3115B16A1FB0B2A0BFB03AA069BDB
:10306000D218079B4AEB030A12F100734AF1000AD7
:103070009B0E43EA8A13A2EB83620260089AD3187C
:103080004360029BA3EB4863C3600461099B13EB9D
:103090000E034361019BA3EB8C638361039BA3EB52
:1030A0004767049BA3EB8666059BC761A3EB416161
:1030B000066241620BB0BDE8F08F00002DE9F04FD1
:1030C000A5B04FF0130E8146D1E90053D2E9008438
:1030D00008938B680EFB04F00193CB680993D1E948
:1030E00004C30A93D1E906730B93D1E908630C93E7
:1030F00093680293D36804931369069353690D93FD
:1031000093690F93D3691693136A1893536A1993AB
:10311000089B5B001093099B5B0011930A9B5B006B
:1031200012930B9B5B0013930C9B5B001493029B0D
:103130000EFB03F31A93049B0EFB03FB069B0EFB93
:1031400003F317930D9B0EFB03F315930F9B0EFBDD
:1031500003F30E93169B0EFB03F30793189B0EFBD2
:1031600003F30593199B0EFB03F30393039A109B40
:1031700083FB021A019B1A46059BC5FB081AC2FB7A
:10318000031A119B1A46079BC2FB031A0E9BCCFB2A
:10319000031A129B1A46159BC2FB031A179B039A2C
:1031A000C7FB031A139BC3FB0B1A1A9BC6FB031A1C
:1031B000149BC3FB001A089B1B9188FB03300199E9
:1031C000C5FB0430C2FB013005990A460999C2FBD0
:1031D00001300799C1FB0C300E990A460A99C2FBCF
:1031E00001301599C1FB073017990A460B99C2FBAC
:1031F00001301A99CBFB063002460C98C1FB003215
:103200001A93109B029983FB04301C92C5FB01307A
:103210000199039AC8FB01301199C2FB013005994D
:10322000C1FB0C3007990A461299C2FB01300E9976
:10323000C1FB073015990A461399C2FB0130179953
:10324000C1FB06301499CBFB01300299CDE91D304A
:10325000089B83FB01B0049B0A99C5FB03B0019B4B
:10326000C3FB04B0099BC8FB03B0039BC3FB0CB0BA
:10327000059BC3FB01B0079B0B99C3FB07B00E9BDB
:10328000C3FB01B017990C9BC2FB06B0C1FB03B096
:10329000109B0499209083FB01310698CDF87CB0F7
:1032A000C5FB0031019802460298C2FB003111981B
:1032B000039AC0FB04311298C8FB0C31C2FB0031E9
:1032C0000598C0FB0731079802461398C2FB0031EE
:1032D0000E98C0FB0631159802461498C2FB0031C7
:1032E00006981593089B0D9A83FB00031791C5FB65
:1032F0000203019A9346049ACBFB0203099A934670
:10330000029ACBFB02030A9ACCFB0403C8FB02031C
:10331000039AC2FB0703059A93460B9ACBFB020361
:10332000079AC2FB06030E9A93460C9ACBFB020344
:103330000D9A2193109B0E9083FB02030F9AC5FBFD
:103340000203019A9346069ACBFB0203119A934615
:10335000049ACBFB0203029ACCFB0203129AC2FB33
:103360000403139A0399C8FB0703C1FB0203059AE0
:10337000C2FB0603079A9346149ACBFB02030F9AEB
:103380002293089B079083FB0203169AC5FB020356
:10339000019A93460D9ACBFB0203099A9346069A2B
:1033A000CBFB0203049ACCFB02030A9A9346029ACF
:1033B000CBFB02030B9AC7FB0403C8FB0203059A6D
:1033C000C1FB060393460C9ACBFB0203169A239388
:1033D000109B059083FB0203189AC5FB0203019A18
:1033E00093460F9ACBFB0203119A93460D9ACBFB9F
:1033F0000203069ACCFB0203129A9346049ACBFB73
:103400000203029AC7FB0203139AC2FB0403149A35
:10341000C8FB0603C1FB0203189A1193089B109086
:1034200083FB023219981799C5FB003201981546A3
:10343000169AC0FB0235099A0F98C2FB00350D9A07
:103440000698CCFB02350A9AC2FB0035049A029812
:10345000C7FB02350B9A159FC2FB00350C98C6FBC3
:1034600004352A461B9CC8FB003206931B9B08921E
:1034700013F100764AF10000B60E46EA801600F01D
:103480007C43B20643EA9613A21A6AEB030309923D
:103490000A931A9B9E191C9B43EBA060159B13F18A
:1034A0000075179B4FEA956543F1000345EA8315C4
:1034B00003F07C44AA0644EA9514BA1A61EB0401AD
:1034C0000E9C6519219C44EBA36316F1807440F1B6
:1034D0000000640E44EAC014A6EB44660B961D9EE1
:1034E000341901941E9C44EB606015F1807443F123
:1034F0000003640E44EAC314A5EB44650C95079DD4
:103500002C190294229C44EB6363019C14F1007417
:1035100040F100004FEA94681F9C48EA801814EBC1
:10352000080B209C44EBA060029C14F10076059CE3
:1035300043F10003B60E46EA831614EB060A239CF9
:1035400044EBA3631BF1807C40F100004FEA5C6C0C
:103550004CEAC01C12EB0C0241EB60611AF1807561
:10356000109843F100036D0E039245EAC31540190C
:10357000AAEB45650490119840EB636312F1007764
:1035800041F10001BF0E47EA8117049911F100745F
:10359000069943F10003A40E44EA83140919059126
:1035A000089941EBA363059911F1807043F1000381
:1035B000400E40EAC3105B16A0FB0E120EFB032365
:1035C000099A89180A9A43EB020311F1007E43F12C
:1035D00000034FEA9E6E4EEA831E0B9B13EB0E0315
:1035E000A1EB8E61C9F80430019BC9F80010A3EB70
:1035F0008863C9F80830ABEB4C63C9F80C30039B07
:10360000A3EB8762C9F810200C9BC9F81C50DF1986
:10361000029BA3EB8666049BC9F81470A3EB846439
:10362000059BC9F81860A3EB4060C9F82040C9F8B1
:10363000240025B0BDE8F08F2DE9F04F95B082460B
:103640004FF02608D1E90262D1E9003008924FEA32
:10365000400B4FEA430ED1E904720392D1E90652BE
:1036600004920A6A05924A6A13210992720006922C
:10367000089A52000192039A52000292049A520050
:103680000A9201FB05F20B92049A08FB02F20792E0
:10369000059A01FB02F9099A039908FB02F208FB5B
:1036A00001F88BFB021CC3FB031C7300C3FB091C4A
:1036B000019B1C46079BC4FB031C0B9C7B00C3FBAC
:1036C000041C039BC3FB081C82FB06380C91019968
:1036D000CEFB0038C9FB01380799C1FB07380299B6
:1036E0000C460B99C1FB04380D938BFB00310198FC
:1036F000CEFB0631C2FB00317800C9FB00310798D0
:1037000004460298C4FB00310B98C0FB05310898B1
:103710000E910B938BFB0631CEFB00310298C2FB5E
:103720000731C9FB0031C4FB0531CDE90F31019BE5
:10373000680002998BFB0334CEFB0734C6FB0634CA
:10374000C2FB01340799C9FB00340498C1FB003463
:103750008BFB07160793039B0898C3FB0E16069B6B
:10376000C3FB00160A98C2FB05160B463146C9FB7F
:103770000031CDE91131029B8BFB0310069BCEFB80
:103780000510C3FB0710019B1E46089BC6FB0310D8
:103790000A9BC2FB0310059B0E46C9FB03608BFB13
:1037A00005130896049ECEFB0613069EB146039EA3
:1037B000C9FB0613019EC6FB0713059E89460699A1
:1037C000C2FB069313930A9BCDF80C908BFB0393DB
:1037D000CEFB0693C1FB0593DDE90116C1FB069301
:1037E0000999C7FB0793C2FB01930A93059B0E46F9
:1037F0008BFB0312069BCEFB0612049EC3FB061234
:10380000019BC3FB0512029D0E461346C7FB0563D1
:1038100006930C9B0C9D13F1007E05964CF1000164
:103820004FEA9E6E4EEA811E01F07C434FEA8E62A3
:1038300043EA9E13AD1A6CEB03030995079D0C93A5
:103840000D9B13EB0E0E079B48EBA16813F1007C58
:1038500044F100034FEA9C6C4CEA831C03F07C416A
:103860004FEA8C6241EA9C11AA1A64EB0104119997
:1038700011EB0C0C129941EBA3631EF1807648F119
:103880000001760E46EAC116AEEB466507950B9D24
:10389000AD1901950E9D45EB61611CF1807E43F1F0
:1038A00000064FEA5E6343EAC613ACEB43650B9533
:1038B000089DEB18029340EB6663019810F10076C7
:1038C0000F9841F100014FEA966848EA811810EB21
:1038D000080B109840EBA161029810F1007643F1BB
:1038E0000000B60E039B46EA80169B190393139BB8
:1038F00043EBA0631BF1807C41F100004FEA5C6C5C
:103900004CEAC01C12EB0C0244EB60610398049279
:1039100010F180750A9843F100036D0E45EAC31556
:1039200019EB050940EB636312F100774FF01302C6
:1039300041F1000119F100744FEA976743F1000368
:10394000A40E47EA8117059944EA83140919A9EBE3
:1039500084640591069941EBA363059911F1807088
:1039600043F10003400E40EAC3105B16A0FB021EA9
:1039700002FB03E3099A89180C9A43EB020311F145
:10398000007E43F100034FEA9E6E4EEA831E079BC2
:1039900013EB0E03A1EB8E61CAF80430019BCAF849
:1039A0000010A3EB8863CAF80830ABEB4C63CAF88D
:1039B0000C30049BA3EB87620B9BDF19CAF8102025
:1039C000CAF81470029BCAF82040A3EB8666039BDA
:1039D000A3EB4565059BCAF81860A3EB4060CAF8E5
:1039E0001C50CAF8240015B0BDE8F08F0029A1BF13
:1039F000CB1001F00701C05C40FA01F1ACBF01F04F
:103A0000010000207047000070B500F11C02041F87
:103A1000084E0120002556F8041B54F8043FC94302
:103A20005B1845EB05011B1841F10000A242F2D1E1
:103A300070BD00BF88BA0008F8B5002406460846E5
:103A40000D46FFF7E1FFDFF834C00246C117C0F1B1
:103A5000000E20465CF8043B55F824702EEA030360
:103A6000DB1940EB00079B1846F8243004F10104F1
:103A700041EB07020021082CECD1F8BD88BA000800
:103A800010B50446FFF7CEF804F12800FFF7CEF892
:103A900004F15000FFF7CAF804F17800BDE81040C7
:103AA000FFF7C0B838B50A4605460C462831FFF77F
:103AB000D9F82830FFF7E4F804F1500105F150007F
:103AC000FFF7BCF804F1780105F17800024ABDE87F
:103AD0003840FFF7F3BA00BFD0BA00082DE9F04331
:103AE00095B0044616460D460A466846283104F14C
:103AF0002808FFF7B7F80AA8FFF7C2F83246694668
:103B00006846FFF7DBFA0AA906F1280204F150071C
:103B1000084604F17809FFF7D1FA0AAA6946404637
:103B2000FFF7A0F82046FFF7ABF805F15002384642
:103B30001146FFF797F806F150023946FFF7BEFA33
:103B400006F1780205F178014846FFF7B7FA4A46D0
:103B500039466846FFF786F80AA8FFF791F842460B
:103B600021464846FFF7AAFA0AAA21462046FFF74F
:103B7000A5FA6A4641464046FFF7A0FA0AAA6946F6
:103B80003846FFF79BFA15B0BDE8F0832DE9F84FF2
:103B90000A9E1C460546904618460F460A4628319E
:103BA000FFF760F8304605F1280AFFF769F842464A
:103BB0002146204605F15009FFF780FA08F1280256
:103BC00031463046FFF77AFA324621465046FFF733
:103BD00049F82846FFF754F807F1500205F1780B31
:103BE00048461146FFF73EF808F1500207F1780108
:103BF0005846FFF763FA5A4649462046FFF732F81F
:103C00003046FFF73DF8524629465846FFF756FA28
:103C1000324629462846FFF751FA22465146504679
:103C2000FFF74CFA324621464846BDE8F84FFFF709
:103C300045BA00002DE9F04714468946074610466C
:103C400004F1280809F1280A04F15005FFF7F4FCF3
:103C500051464046FFF7F0FC09F15001284604F1B7
:103C60007806FFF7E9FC294628460222FFF73EF9CD
:103C7000494607F1780952463046FEF7F3FF3146D0
:103C80004846FFF7D9FC224641463046FEF7EAFF98
:103C90004046FEF7F5FF324649462046FEF7F0FF64
:103CA000424629462846FEF7EBFF2A46214638467B
:103CB000FFF704FA4246314607F12800FFF7FEF904
:103CC0002A46414607F15000FFF7F8F932462146EF
:103CD0004846BDE8F047FFF7F1B9000038B5FC22CF
:103CE00004460D4611462846FFF780FE08B9013A02
:103CF000F8D14FF6FF7301322380E270A37038BD14
:103D00002DE9F84F9846C37805460E4693420CD1EC
:103D100011464046571EFFF769FE044640463946A5
:103D2000FFF764FE844209D1EF70B5F90030934289
:103D30000CBF95F902000020BDE8F88F511C4FF030
:103D400000098E42A8BF0E4606F1FF3A971B04FAFF
:103D50000AF4BB466442CA450BF1010B09DD594622
:103D60004046FFF743FE00FA09F009F10109044457
:103D7000F1E739464046FFF739FE044463422340E9
:103D800013F0AA0F14BF0120002013F0CC0118BFBC
:103D9000022113F0F00340EA010018BF0423511C74
:103DA00003438E1B1E4444FA03F32E80AB70BBE723
:103DB000D0E9103210B5D0F8D04000211B1952F1D3
:103DC000000228BF0121C0E9103231B1D0E912321E
:103DD000013342F10002C0E9123210BD70B50D4648
:103DE000A0F1080600F1780428460835FEF7C0FA6D
:103DF000E6E90201A642F7D170BD0000F8B504461D
:103E00000D468E180027B54218D0D4F8D030802B3C
:103E100007D12046FFF7CCFF0021FEF705FBC4F8D1
:103E2000D070D4F8D020204615F8011BFEF7D8FE3C
:103E3000D4F8D0300133C4F8D030E4E7F8BD000046
:103E400008B5FEF7E1FA0843B0FA80F040090138FE
:103E500008BD000000231A468B4202D0C254013331
:103E6000FAE7704770B59EB005460C4604266846D2
:103E7000FFF7E2FB69460AA8FFF7DEFB0AA908463E
:103E8000FFF7DAFB0AAA21461046FFF717F90AAA3C
:103E900069466846FFF712F969466846FFF7CCFBAA
:103EA0006A460AA96846FFF709F969460AA8FFF7B2
:103EB000C3FB0AA90846FFF7BFFB013EF9D16A46DA
:103EC0000AA968460926FFF7F9F869460AA8FFF724
:103ED000B3FB0AA90846FFF7AFFB013EF9D10AA9D7
:103EE0006A4613260846FFF7E9F80AA914A8FFF75F
:103EF000A3FB14A90846FFF79FFB013EF9D10AAACC
:103F000014A909261046FFF7D9F80AA90846FFF7B1
:103F100093FB0AA90846FFF78FFB013EF9D16A46D9
:103F20000AA968463126FFF7C9F869460AA8FFF7CB
:103F300083FB0AA90846FFF77FFB013EF9D10AA9D6
:103F40006A4663260846FFF7B9F80AA914A8FFF7DE
:103F500073FB14A90846FFF76FFB013EF9D10AAACB
:103F600014A931261046FFF7A9F80AA90846FFF759
:103F700063FB0AA90846FFF75FFB013EF9D16A46D9
:103F80000AA96846FFF79AF869466846FFF754FBA6
:103F900069466846FFF750FB224669462846FFF708
:103FA0008DF828216846FFF755FF0DEB0100FFF75C
:103FB00051FF14A8FFF74EFF1EB070BD10B58CB0B6
:103FC000044602A80191FFF74DFF02A90846FFF73A
:103FD00033FB02A90846FFF72FFB02A9019A084606
:103FE000FFF76CF802A90846FFF726FB019A02A921
:103FF0002046FFF763F8282102A8FFF72BFF0CB03B
:1040000010BD000070B58AB002460B4601F12806CB
:104010006D461868083353F8041C2C46B34203C499
:104020002546F6D11321099B684600244B43694677
:1040300003F180735B160568013408302B4450F897
:10404000045C052C05EBA3634FEA6363F3D11320F3
:10405000002443430868013408310344052C23F04D
:104060007C4041F8080C51F8040C00EBA3604FEAC7
:10407000606320F07E4041F8040CEBD11046DDE98E
:10408000003143EA8161FEF77FF90299019B101D1F
:10409000C90441EA9311FEF777F90399029B02F1F3
:1040A0000800490341EA5331FEF76EF90499039B76
:1040B00002F10C00890141EAD341FEF765F902F1F2
:1040C0001000DDE9053143EA4161FEF75DF907992A
:1040D000069B02F11400C90441EAD311FEF754F91A
:1040E0000899079B02F11800090341EA5331FEF7D2
:1040F0004BF90999089B02F11C00890141EA13510F
:10410000FEF742F928216846FFF7A4FE0AB070BD09
:104110002DE9F04F2DED028B9DB00C46642200215D
:1041200008EE100A03A8FDF7C7FE0DF10C080022E7
:10413000DFF8E0E0414604F13C099246CDF800800A
:104140005EF8043B251F8C4600269846284650F80A
:10415000047FD346DCF800300197019FE8FB073B62
:104160009B194BF1000681454CF8043BEFD101321D
:104170000E640431092AE3D10021202203A8FDF7AF
:104180009BFE002103AB8E461A6C0020DFF888A04E
:104190009C4690460646C1F108095AF8047BF3464E
:1041A000DCF8002001300197019FE8FB072B9219F2
:1041B0004BF1000648454CF8042BEED30131043393
:1041C0000829E1D11C3401210020009B1A6855F810
:1041D000043FD2439B1840EB00025B18009941F862
:1041E000043B009142F10001A542EED103A908462B
:1041F000FFF722FC082203A918EE100AFEF7DAF8EE
:10420000642103A8FFF726FE1DB0BDEC028BBDE8BC
:10421000F08F00BFE0BF000888BA000810B588B072
:1042200001466846FFF7EEFE9DF8004068462021F3
:1042300004F00104FFF70EFE204608B010BD000098
:1042400030B59FB00D46044650316846FFF7B6FEC4
:104250006A4629460AA8FEF731FF6A4605F1280199
:1042600014A8FEF72BFF14A92046FFF7CBFE0AA8DF
:10427000FFF7D4FFE37F282183EAC010E077684688
:10428000FFF7E8FD0DEB0100FFF7E4FD14A8FFF7D1
:10429000E1FD1FB030BD000010B590B00446102203
:1042A00001466846FEF778F869462046FFF730FF7A
:1042B00040216846FFF7CEFD10B010BD10B590B09C
:1042C0000C4601466846FFF79DFE214608A8FFF709
:1042D00099FE08A96846FFF7B3FD20210446684609
:1042E000FFF7B8FD0DEB0100FFF7B4FD601C10B047
:1042F00010BD0000F0B595B004466846FEF79EFC80
:1043000069462046FFF7AEFD21460AA8FFF794F95B
:104310000AA96A460846FEF7D1FE6846FEF786FC03
:1043200069460AA8FFF7CAFF694606466846FEF7CF
:104330008FFC0AA8FFF7C2FF104A054668461146DF
:10434000FEF786FC69460AA8FFF7B8FF0746214634
:1043500068460A4AFEF7B2FE45EA07026946204669
:10436000FEF79CFC28210DEB0100FFF773FD68466A
:10437000FFF770FD46EA050015B0F0BD38BB000838
:10438000DFF880C02DE9F0419046A0B004460E460B
:104390001D4600F108070CF138026346083703CBCD
:1043A000934247F8080C47F8041C9C46F5D186EA6E
:1043B0000522124B0021534000222360104B636002
:1043C0000023C4E93416C4E91023C4E912238DB1D3
:1043D0007C2201A80091FDF76FFD2A464146684600
:1043E000FDF744FD694604F15000FFF7F7FC802318
:1043F000C4F8D03020B0BDE8F08100BF08C9BDF2DC
:1044000067E6096A00BB0008002340211A46FFF74F
:10441000B7BF00008830FFF7F7BF00002DE9F04775
:1044200004460D4617469AB3D0F8D0604FF0000A04
:1044300004F150094FF08008764206F07F0696425C
:1044400028BF164632463544BE1BFFF7D7FC26F080
:104450007F072F44AF4213D0D4F8D030802B07D140
:104460002046FFF7A5FC0021FDF7DEFFC4F8D0A031
:1044700029464846FFF7B2FC8035C4F8D080E9E70A
:1044800006F07F0239462046BDE8F047FFF7B6BC8C
:10449000BDE8F0878830FFF7C1BF00002DE9F84381
:1044A00004460D46D0F8D0607F2E06D83246002153
:1044B00020460136FEF794FBF6E72046A4F10807F4
:1044C000FFF776FC0121FDF7AFFFD4F8D4202E468C
:1044D00022F00708A84446450CD057F8081F30467C
:1044E000D7F80490FDF750FF301D08364946FDF718
:1044F0004BFFF0E722F00703D4F8D4209A4217D9F3
:1045000003F0070223F00700DE08D100204454F82E
:1045100036204768C1F12006A1F12000CA4007FA01
:1045200006F627FA00F032430243EA540133E3E788
:104530002046D821BDE8F843FFF78CBC8830FFF750
:10454000ADBF000010B5B6B004466846FFF718FFCF
:104550006846DDE93812FFF761FF21466846FFF73C
:104560009DFF36B010BD0000002307B5CDE9001255
:104570001A464021FFF7E6FF03B05DF804FB000098
:1045800003689B68184700002DE9F0410E46044679
:1045900015460139024606F13F0042F8043B11F886
:1045A000017F814202F8017BF9D16A1E04F16401A6
:1045B00005F11F0012F8017F824201F8017BF9D159
:1045C00020465B6898472368314620469B68202236
:1045D00098472368294620469B682022BDE8F04181
:1045E00018470000014BFFF7CFBF00BF04C0000811
:1045F000FFF7C6BF2DE9F04F8046ADF56F7D05464C
:1046000058F8043B16A905F1240A05F16409DB6892
:1046100026AC984716A8FFF73FFE0822514604A88B
:10462000FDF7BAFE494630A8FEF74CFB3AA8FEF764
:10463000FDFA30A944A8FEF7FFFF864A44A92046A8
:10464000FEF73CFD44A93AAA0846FEF719FB2046AE
:104650002146FEF707FB44A92246FEF72FFD21461F
:104660002046FFF747FE28B94FF0FF300DF56F7D6C
:10467000BDE8F08F224644A92046FEF71FFD2046E4
:10468000FFF7CCFD95F88330B0EBD31F03D0214664
:104690002046FEF7DDFA44A830AA2146FEF70EFDBB
:1046A00004A8FFF7B1F90028DED121462046FEF725
:1046B000CFFA44A94EAF0846FEF7CAFA76AA2146B9
:1046C0003846FFF7B7FA21469EA8FFF7EBF99EAAF6
:1046D000394676A8FFF702FA76A9C6A8FFF7E2F9ED
:1046E00016A902A8FFF7FAFA03A85146FFF7F6FA4F
:1046F0009DF80B609DF80F3020469E4238BF1E4645
:10470000FFF7BEF93A4621462046FFF793FA16AB6B
:104710003246032102A8FFF7F3FA05465346052166
:1047200003A8FFF7EDFA002D834623DD6D10A022CC
:104730009EAB02FB053221462046FFF7CFF9BBF1C5
:10474000000F3ADD76AB44494FEA6B0B78220093B9
:10475000204602FB0B120CAB2146FFF717FA013E75
:10476000D0D226A94846FFF76BFD49464046FFF7E1
:1047700067FB7BE7E3D005EBD5756FF09F019EAB40
:1047800080A86D104D435919FEF758FA9EAB05F1FC
:10479000280176A81944FEF751FA9EAB05F15001A5
:1047A0008AA81944FEF74AFA9EAB05F1780194A84D
:1047B0001944FEF74DFA76AABDE7D0D00BEBDB73B8
:1047C000254A6FF0770530A95B100CA803FB05257F
:1047D0002246FEF747FA76A8FEF752FA0CA905F131
:1047E00028020846FEF76AFC76A92A460846FEF724
:1047F00065FC76AA0CA930A8FEF734FA2046FEF72D
:104800003FFA3AAA11461046FEF72CFA44A905F1E0
:1048100050020846FEF752FC44AA3AA90CA8FEF73B
:104820002FFA76A8FEF71EFA30AA214644A8FEF712
:1048300045FC76AA21462046FEF740FC30A90CAA8A
:104840000846FEF73BFC76AA0CA93AA8FEF736FC10
:1048500085E700BFA8BA000860BB000801218842B4
:1048600038BF084605F09AB908B105F09BB9704702
:1048700010B5084C01220849002001F0B3FE23784E
:104880003BB1064803F036FD044803F069FD002300
:10489000237010BDE833002018C00008C83600207F
:1048A0001D482DE9F041036D2BB901224FF48051D1
:1048B000503005F0D7FA194E33780BB1FFF7D8FF17
:1048C0000324174F4FF00008134D15492846C7F829
:1048D000048003F037FD284603F070FB48B1013C2B
:1048E000284603F03DFD14F0FF04EED1204634705D
:1048F0000FE00C4901220C4801F074FE014618B18A
:10490000284603F0F7FCEAE7084800F011F8012018
:104910003070BDE8F08100BFC8360020E8330020C9
:104920003C22002018C00008EC3300201CC0000806
:104930000FB4002004B07047006870470346006859
:10494000596870470B0A017043700B0C090E837095
:10495000C1707047110A027003714170110C120E80
:104960008170C2701A0A42711A0C1B0E8271C371D7
:1049700070470000C36A0239023B8B4283BF438900
:10498000006C01FB0300002070470000C2F3072306
:104990008A76CB760378032B01BF120C0A75120AB4
:1049A0004A75704700F10B010022D30143EA52031C
:1049B00010F8012B52FA83F38842DAB2F5D110468F
:1049C0007047000010B541780446002001310246CE
:1049D0004901022A16BFA35C032203EBC03302F194
:1049E00001021EBF9BB203EB500398B29142F0D874
:1049F00010BD000002684AB1134613F8011B1F29BD
:104A00000DD93A29F9D1911C8B4202D04FF0FF30D9
:104A100070471278302AF9D1036000207047014BAB
:104A2000187870473836002038B50D46044618B956
:104A3000092000232B6038BD0368002BF8D01A78BA
:104A4000002AF5D08188DA889142F1D1587804F0B3
:104A50000FFC10F00100EBD12368EBE738B50D46F1
:104A600040F25231144602F0B9F9FF2807D9012C5F
:104A70000BD9030A022468702B70204638BD30B170
:104A8000002CFAD001242870F7E70024F5E704464B
:104A9000F3E700002DE9F8430026D0F80080054632
:104AA0000C468E76836B002B4AD098F80030042B8E
:104AB0004BD133463546402720E0B7F5187F80F0CC
:104AC000C480F90606F1010608BF0237D05B023741
:104AD0002BB900F5205292B2B2F5006F0DD305F15B
:104AE0001A01C5F1FF0240EA03402144FFF7B6FF77
:104AF000002800F0AA80054400200346D8F81020C2
:104B000092F82310B142D8D8002B40F09E80002D9F
:104B100000F09B8000232544AB766373D8F8102007
:104B2000137903F03701DB0621730BD402F138004F
:104B3000FFF704FFC4E9000193896381D3892381CE
:104B4000BDE8F88300200146F4E7C36C01335ED171
:104B5000EA6B00232E26551E184615F8011F01305A
:104B600020290CD0052908BFE521092804D10B2BE9
:104B70009EBFE71801337E73E718013379730B2862
:104B8000EBD1E11800204873A17E00294BD1002B06
:104B900040D06FF00C0604F10D000825361B3318C9
:104BA00010F8011B002938D02E298BB24AD0A3F16E
:104BB0004101192903D8117B0D4200D02033037322
:104BC000EDE7B9F1000F05D100F520539BB2B3F525
:104BD000006F0BD307F11A01C7F1FF0240EA094049
:104BE0002144FFF73BFF48B10744002002368146CD
:104BF000D8F80C30985B0028E3D13846B9F1000FA3
:104C00004FF0000218BF002023189A76A0E7B146A3
:104C10003746EDE73F23A37601232344002199760D
:104C2000137B03B96373D37A02F11C0003F03F03D3
:104C300023730023FFF780FE20606360D38A6381C3
:104C4000138B7CE710250B46B9E73F230125A3769C
:104C500060E7000038B50546002435F8020B08B9B6
:104C6000204638BD02F0EEF86308C2B203EBC4334D
:104C700012FA83F39AB2C0F3072303EB520303EB58
:104C8000C2339CB2E9E7000037B5C37804461BB9CC
:104C90000025284603B030BD00F14C01826C012391
:104CA0004078019104F00AFB054680B9A36BE070DF
:104CB000A06C226BC31A9342EAD2A3780199022B0B
:104CC000E6D102440123607804F0F8FAE1E7012517
:104CD000DFE7000038B5836C05460C468B4210D0E8
:104CE000FFF7D2FF60B92246012305F14C01687835
:104CF00004F0C0FA00281CBF4FF0FF340120AC6460
:104D000038BD0020FCE7000038B500230446C3701E
:104D10004FF0FF338364FFF7DDFF00284BD1B4F879
:104D20004A524AF655239D4207D10B22254904F1E8
:104D30004C0006F0ABFD00283FD094F84C30EB2B34
:104D400003D01833DBB2012B2ED84AF655239D42EF
:104D500006D108221C4904F19E0006F097FD48B3D5
:104D6000B4F85730B3F5007F1ED194F85930DBB159
:104D70005A1E1A4218D1B4F85A30ABB194F85C30CC
:104D8000013B012B10D8B4F85D306BB1B4F85F3043
:104D90007F2B06D804F16C00FFF7CEFDB0F5803F05
:104DA00002D3B4F8623053B94AF6552085420CBF9D
:104DB0000220032038BD0420FCE70120FAE7002090
:104DC000F8E700BF48C0000854C0000802392DE9C8
:104DD000F04701F007044FF0010A466C05460AFA55
:104DE00004F41746984606EB1136C1F3C809E4B23D
:104DF000314628460136FFF76DFF18B10120BDE8A6
:104E0000F087994605EB090292F84C30234214BF13
:104E100001210021414513D06340013F82F84C300D
:104E200085F803A0EBD0640014F0FF04EAD109F187
:104E3000010301244FF00009B3F5007FE1D1D7E76A
:104E40000220DCE701290246F8B50C4640F28C80CE
:104E50000668F36A8B4240F287803378013B032B6C
:104E600000F28280DFE803F00229384B04EB54059E
:104E7000B16B304601EB5521FFF72CFF10B14FF01D
:104E8000FF30F8BD6F1CC5F30805B16B30463544E3
:104E900001EB572195F84C50FFF71CFF0028EED18D
:104EA000C7F30807E3073E4496F84C0045EA0020A4
:104EB0004CBF0009C0F30B00E3E7B16B304601EBD8
:104EC0001421FFF707FF0028D9D1640004F4FF7410
:104ED0002644B6F84C00D4E7B16B304601EBD41150
:104EE000FFF7F8FE0028CAD1A40006F14C0004F434
:104EF000FE742044FFF720FD20F07040C1E7D0E9A8
:104F00000430D57953EA000101D0916801B95DBB45
:104F10009168022DA4EB01010DD1013B728940F192
:104F2000FF305B0A43EAC053B3FBF2F399421BD84C
:104F30001CD0601CA5E7032D02D193698B42F8D8E1
:104F4000D3699BB9B16B304601EBD411FFF7C2FEB8
:104F5000002894D1A0004C3600F4FE703044FFF7D6
:104F6000EBFC20F000408CE701208AE76FF0004066
:104F700087E70000F8B5066804460D463378042B31
:104F80000CBF4FF080524FF400128A4201D8022029
:104F9000F8BDCA06FBD182680163D2B9022B13D8CF
:104FA0003389B3EB551FF2D9F36BA363A36B626331
:104FB000002BECD003EB55234C36C5F3080500203D
:104FC000A3633544E563E3E7F36BC271002BE7D0DD
:104FD0001A4677897F02BD42114604D23046FFF758
:104FE000C9FCA063E2E72046FFF72CFF431C024602
:104FF00006D00128CBD9F36A8342C8D9ED1BEAE772
:105000000120C5E701292DE9F04706460C46174661
:1050100008D9C36A8B4205D90378022B62D003D822
:10502000012B22D0022552E0033B012BFAD8816BE1
:1050300001EBD411FFF74EFE0546002847D1A4002E
:1050400006F14C0304F4FE741C443378042B07D09F
:10505000204627F07047FFF76FFC00F070400743D1
:1050600039462046FFF76EFC2FE001EB5108816BBB
:1050700001EB5821FFF72EFE054640BB14F001045A
:1050800006F14C0908F1010AC8F3080808BFFBB291
:1050900030461FBF19F8083003F00F023B0103F040
:1050A000F00318BF134309F808300123B16BF37004
:1050B00001EB5A21FFF70EFE054640B9CAF3080A74
:1050C00044B1C7F3071709F80A700123F3702846A3
:1050D000BDE8F08719F80A30C7F3032723F00F0360
:1050E0001F43F0E7816B01EB1421FFF7F3FD054649
:1050F0000028ECD1640006F14C0304F4FF741F5542
:105100001919C7F307274F70DFE70000F8B5044609
:105110000E461746E3690BB91846F8BD012BA6EBFE
:105120000305206814BFAA1C3A46691CFFF76AFFF2
:105130000028F2D1E369013BE361EBE701292DE9A6
:10514000F84306460C461746056802D80220BDE81B
:10515000F883EB6A8B42F9D97AB9A14621463046E9
:10516000A046FFF76FFE0446B0B92B78042B02D19E
:10517000002F43D1F7710020E9E72B78042B02D1EF
:10518000C379022BE9D04FF0FF3239462846FFF7AA
:1051900039FF0028E1D0DAE70128D7D0421C01D13D
:1051A0000120D4E72B78042B19D1EA6AAB69023AC3
:1051B00093421CD308F10102A2420CD02B78042B9D
:1051C00008D10023A2EB090249462846FFF7FEFD5D
:1051D0000028BCD1A146EB6AA342BFD8C5E7002294
:1051E00041462846FFF70EFF0028DED0AFE7013327
:1051F000AB612B7943F001032B71DBE7F3798BB9BA
:10520000B468BC4202D10223F371B4E721463046B0
:10521000FFF718FE012899D9431CC1D001348442FC
:10522000EFD0A8E7032BA6D1B368BB42A3D8B269DD
:105230001344BB429FD3E6E770B5C3790446032B02
:1052400006D181688369CD18A94203D10023E37197
:10525000002070BD4E1C20683246FFF7D3FE0028A8
:10526000F7D13146F0E700002DE9F74305460191FB
:10527000FFF70AFD0446002849D105F14C090199C0
:1052800028464FF40072FFF775FB2146A8640746D5
:105290004846FCF711FE6C896402B4F5004F28BF44
:1052A0004FF40044B4F5007F2FD9204604F07EFC73
:1052B000804630B122460021640A0026FCF7FCFD3E
:1052C00009E06408EEE72346BA194146687803F01E
:1052D000F5FF18B926446B899E42F4D3404604F08A
:1052E00075FC6889801B18BF012003B0BDE8F083FE
:1052F00001366B899E42F4D20123BA194946687877
:1053000003F0DCFF0028F3D0EBE70026F1E70120F3
:10531000EBE70000F8B50446FFF7B6FC05460028A9
:1053200042D12378032B37D12779012F34D104F1CF
:105330004C0601464FF400723046FCF7BDFD552384
:105340004122722184F84A32AA2304F50D7084F8B0
:105350004F2084F84B32522384F8301284F84C30BA
:1053600084F84D30612384F8311284F84E3084F88B
:105370003332A16984F83222FFF7E4FA616904F557
:105380000E70FFF7DFFA626B3B4631460132607800
:10539000A26403F093FF257100226078114603F0A8
:1053A000B1FF003818BF0120F8BD000000232DE92F
:1053B000F0430B6085B00F461546FFF71BFB061E3A
:1053C000C0F2B281804B53F82640002C00F0AE8131
:1053D0003C6005F0FE0523786BB1607803F048FF70
:1053E000C70708D41DB110F0040500D00A252846CF
:1053F00005B0BDE8F0830023F0B22370607003F0C5
:1054000023FFC10700F194810DB14207EED40021C2
:105410002046FFF779FC022840F099806E4604F29E
:10542000122304F25221324618461033FFF784FA51
:1054300042F8040B8B42F7D1002556F8041B0029D3
:105440007DD02046FFF760FC012879D80128A26CA6
:1054500040F0C08004F1570304F18C0113F8015BA4
:10546000002D7BD18B42F9D1B4F8B430B3F5807FF5
:1054700074D194F8B830092B70D104F19400FFF77F
:105480005DFA4FF0FF33171841F10001BB4275EB95
:10549000010363D304F1A000FFF74EFA94F8BA3089
:1054A0002063012BA37059D194F8B99003FA09F93C
:1054B0001FFA89F36381002B50D0444B04F1A800FC
:1054C000FFF73AFA0646984248D8831C626304F113
:1054D000A400E362FFF730FA00EB020804F19C003D
:1054E000C4F84080FFF728FA10441FFA89F2A0633D
:1054F00006FB02F313EB080345EB05029F4271EB39
:1055000002032BD32E4604F1AC00FFF715FAE0633B
:1055100065B96389B34221D9E16B2046FFF72AFAC6
:1055200081192046FFF7D6FB98B90136631993F825
:105530004C30812B14D02035C5F30805E8E7032053
:105540000135042D7FF479AF042807D101E0042848
:1055500001D101254BE701287FF678AF0D2546E7FD
:1055600005F1140004F14C063044FFF7E5F9012879
:105570000546F3D9E36A8342F0D96189821E236C20
:1055800002FB01336364A16B204601EBD511FFF7E9
:10559000A1FB0028DDD105F07F0006EB8000FFF7BE
:1055A000CBF9431C03D00135A842ECD0D6E7042543
:1055B000C4E90500064A257000251388E56101331A
:1055C0009BB21380E38012E73C360020FDFFFF7F93
:1055D00040360020B4F85730B3F5007FBED1B4F8A0
:1055E000626026B904F17000FFF7A6F9064694F848
:1055F0005C302663591EA3700129AFD894F8595026
:105600006581002DAAD0691E2942A7D1B4F85D801A
:1056100018F00F0FA4F80880A0D1B4F85F0018B9F3
:1056200004F16C00FFF788F9B4F85A10002995D0FE
:1056300006FB03FE01EB181CF44460458ED3A0EB7F
:105640000C00A842B0FBF5F388D33E48834285D8CE
:105650004FF6F57083426DD903259F1C114402EB70
:105660000C03032DE7626263A16323644CD1B4F899
:10567000763053EA08037FF471AFBB0004F1780081
:10568000FFF75AF9E06303F2FF13B6EB532FFFF471
:1056900065AF4FF0FF33032DC4E905334FF08003AE
:1056A000237187D1B4F87C30012B83D1511C204663
:1056B000FFF710FB00287FF47DAFB4F84A224AF6CA
:1056C000552320719A427FF475AF1F4B04F14C00B3
:1056D000FFF732F998427FF46DAF03F1FF5304F501
:1056E0000C70FFF729F903F50053203398427FF43B
:1056F00061AF04F50D70FFF71FF9A06104F50E709E
:10570000FFF71AF9606155E7B8F1000F3FF426AFD3
:105710007144022D4FEA4703E1631EBFD91907F018
:10572000010303EB5103AEE70B2560E60C255EE6B3
:1057300003255CE640F6F575AB428CBF02250125DA
:105740008BE700BFF5FFFF0F525261412DE9F84F83
:1057500007460568884649B96E69C6B1EB6AB34227
:1057600098BF0126AB69A3B9002405E0FFF76AFBE7
:105770000128044603D801242046BDE8F88F421CC6
:1057800000F0D280EB6A8342F6D84646EAE701266B
:10579000E8E72A78EB6A042A40F08380A6F1020A3F
:1057A000023B4FF0010B9A4528BF4FF0000AD1464B
:1057B000696C284601EB1931FFF78CFA00283BD1C0
:1057C00009F00703EA6AC9F3C8010BFA03F3901E54
:1057D000DBB26A184C4609F1010992F84C20814568
:1057E00002EA030233BF5B0000234FF40071DBB217
:1057F00028BF9946B2B90234631E0333BCD80123D3
:10580000214628461A46FFF7E1FA0228B3D00128BC
:1058100000F08A80B8F1000F13D10223FB71002839
:10582000A9D130E0CA450AD0002BD2D10131B1F55F
:10583000007FBDD20123CCE74FF0FF34DCE700242A
:10584000DAE7FB79022B07D1731CA342E7D0BB68D0
:10585000F31ABB610323FB7108F10102FB69A24249
:1058600005D113B10133FB61D9E70223FBE70BB983
:105870000123FB61224641463846FFF747FC0028DA
:105880004FD10123FB61EA6AAB69023A6C61934232
:105890009CBF03F1FF33AB612B7943F001032B7104
:1058A0006AE7464514D1741C3846A34298BF0224C7
:1058B0002146FFF7C7FA01283FF45DAF431C33D000
:1058C000E0B16B69012B03D9EA6A934238BF1E46E7
:1058D00034460134EB6AA34203D8012E7FF644AF6D
:1058E000022421463846FFF7ADFA48B101283FF4BB
:1058F00042AF013018D0B442EBD135E7002CE7D0ED
:105900004FF0FF3221462846FFF77CFB48B9B8F13B
:10591000000FB8D0224641462846FFF773FB002807
:10592000B1D001287FF427AF4FF0FF3424E7000007
:105930002DE9F84306680446076B8946337820371B
:10594000042B0CBF4FF080534FF40013BB429CBF9D
:1059500000238363836B73B1C7F30808B8F1000FAA
:105960003CD10133416B836339B93389B3EB571FA2
:1059700034D80023A36304200AE07389013B13EAAF
:1059800057232BD1FFF75EFA0128054602D80220E3
:10599000BDE8F883421C01D10120F9E7F36A834294
:1059A00016D8B9F1000FE4D0616B2046FFF7CEFEA8
:1059B0000546C8B10128EAD0431CEDD00146304667
:1059C000FFF752FC0028E7D1E37943F00403E371C9
:1059D000294630466563FEF7CDFFA0634C360020B4
:1059E00027634644E663D3E70720D1E7F8B50E46C0
:1059F000002104460768FFF7BDFA98B90546A16B78
:105A00003846FFF767F968B93A78E36B042A1B78E0
:105A10000CD11B060ED5054601212046FFF788FF55
:105A20000028ECD0042808BF072006E0E52B01D0B1
:105A3000002BF0D10135B542EED1F8BDC16C4B1C45
:105A40002DE9F04104460568066B1FD1E5274FF0AC
:105A50000108A16B2846FFF73DF998B92A78E36B56
:105A6000042A09BF1A781F7002F07F021A7085F8A5
:105A70000380236BB3420DD200212046FFF758FF6D
:105A80000028E6D0042808BF022003E0FFF772FADE
:105A90000028DBD0BDE8F0812DE9F0410546006823
:105AA000A96B0669FFF716F9044620B9EB6B1A7863
:105AB000852A03D002242046BDE8F081324603F156
:105AC000200153F8040B8B4242F8040BF9D177788C
:105AD00001377F01A7F16003B3F5007FEAD8002109
